:020000040000FA
:0400000027EF00F0F6
:060008004D82E6ED04F05C
:100018004D80D8CF35F0E8CF36F0E0CF37F0D9CFE4
:1000280038F0DACF39F0F7EC00F02BEC05F039C0F6
:10003800DAFF38C0D9FF37C0E0FF36C0E8FF35C067
:10004800D8FF4D901000C6EF03F006040510D8A4A1
:100058002DD0000E3D6E070E3D6401D010D0095022
:100068003D18D8B40AD03D50010D180EF324D96EAE
:10007800000EF420DA6E000EDF6E3D2AECD7095030
:10008800010D180EF324D96E000EF420DA6E08C0A4
:10009800DFFF020E0718D8A41200092A000E076E07
:1000A800070E09641200000E096E12000504010E05
:1000B8000658D8A03FD0000E055C020E0658D8B0EE
:1000C80039D0000E3D6E070E3D6401D02CD03DC0E6
:1000D8003AF0010E3B6E000E3C6E3A2A03D0D890DF
:1000E8003B363C363A2EFBD705503B1606503C169D
:1000F8003B503C10D8B40BD03D50010D180EF324E2
:10010800D96E000EF420DA6E08C0DFFF0AD03D5029
:10011800010D180EF324D96E000EF420DA6E000ECD
:10012800DF6E3D2AD0D7020E0718D8A41200000EA1
:10013800076E120005500610D8A41AD0000E3D6EA6
:10014800070E3D6401D012003D50010D100EF3243E
:10015800D96E000EF420DA6E3D50010D180EF3240E
:10016800E16E000EF420E26EDFCFE7FF3D2AE8D70C
:1001780005500610D8B41200000E055C010E065892
:10018800D8B01200000E3D6E070E3D6401D012007B
:100198003DC03AF0010E3B6E000E3C6E3A2A03D089
:1001A800D8903B363C363A2EFBD705503B160650C6
:1001B8003C163B503C10D8B40AD03D50010D180EE7
:1001C800F324D96E000EF420DA6EFF0E09D03D50EC
:1001D800010D180EF324D96E000EF420DA6E000E0D
:1001E800DF6E3D2AD1D79EAA1200ABCF0CF0AECF5E
:1001F8000AF00CA25DD0AB98AB88010E0B6E120012
:100208000CB41200020E0B6E12000CA412000A505D
:10021800D8A41200030E0B6E12000CA403D0010E1A
:100228000B6E12000A50D8A40BD0000E046E000EFC
:10023800036E000E026E000E016E000E0B6E1200B1
:10024800020E0B6E12000CA409D00A50D8A403D0D9
:10025800030E0B6E1200010E0B6E12000550035CAC
:1002680006500458D8A00AD0890E0124D96E000E71
:100278000220DA6E0AC0DFFF014A022A034A042A72
:1002880002500AE1080E015CD8B006D0000E035CEB
:10029800020E0458D8A01200020E0B6E480ED76E3C
:1002A800E50ED66E010E0D6ED58EF28AF29412000E
:1002B8000B50336E346A3450000AD8A412003350FD
:1002C800000AD8B4C0D7010AD8B49AD7030AD8B458
:1002D8009CD7010AD8A41200A0D7000E406E000EC9
:1002E8003F6E40BE06D0405053E1080E3F5CD8B088
:1002F8001200440E3F24D96E000E4020DA6EDF5003
:100308003A6E010E3B6E3A2A02D0D8903B363A2E0E
:10031800FCD73B50FF0A3C6ED8903F34D96E40342E
:10032800DA6E600ED926000EDA22DECF3DF0DDCF80
:100338003EF03DC0D9FF3EC0DAFF3C50DF16440E08
:100348003F24D96E000E4020DA6EDF503A6E010E5F
:100358003B6E3A2A02D0D8903B363A2EFCD73B5017
:10036800FF0A3C6ED8903F34D96E4034DA6E700E76
:10037800D926000EDA22DECF3DF0DDCF3EF03DC0BB
:10038800D9FF3EC0DAFF3C50DF163F4A402AA9D7C2
:1003980012008350080B0001806F816B803B813B0A
:1003A800F00E811780510F0B8113F00E80178250C9
:1003B800100B826F836BD89082378337D89082373F
:1003C80083378350030B846F856BD89084378537C8
:1003D800D89084378537D890843785378250070B73
:1003E800866F876B845186138551871382CF88F077
:1003F800200E881788518613000E871382518613A2
:1004080083518713805186113C6E815187113D6E4F
:100418008340E8423F0B010B3D263C04020E3D5849
:10042800D8B005D03CC03AF03DC03BF01200020EF7
:100438003B6E000E3A6E120034EC05F00009D8B499
:10044800120095EC05F030D0010E5FEC05F092EC4F
:1004580005F04FEC05F0020E0E6E1200FDEC03F0F5
:10046800000E5FEC05F092EC05F08EEC05F07BECED
:1004780005F0000E0F6E040E0E6E1200010E5FECFA
:1004880005F057EC05F04FEC05F0030E0E6E120068
:10049800FDEC03F0000E5FEC05F08EEC05F092EC3D
:1004A80005F0010E0E6E12000E502F6E306A30509D
:1004B800000AD8A4EDD72F50000AD8B4E9D7010A0A
:1004C800D8B4C2D7030AD8B4C9D7010AD8B4C6D792
:1004D800070AD8B4D3D7DCD7000E3E6E070E3E64A9
:1004E80001D012000D04D8A430D0000E3A6E020ECE
:1004F8003B6E3E503C6E3D6A3C1E3D1E3C4A3D2ACA
:100508003A503C263B503D223C50055C3D50065835
:10051800D8B02DD03E50010D890EF324D96E000EAF
:10052800F420DA6E3E50010D100EF324E16E000E39
:10053800F420E26EDE50E65CD8B007D03E50010DE4
:10054800890EF324D96E000E06D03E50010D100E10
:10055800F324D96E000EF420DA6E3E50010D180E09
:10056800F324E16E000EF420E26EDFCFE7FF3E2AAF
:10057800B5D77C0ED36E08EC03F04C6E180E416EA6
:10058800000E426E080E436E86EC04F007EC05F090
:10059800C3EC04F0480E3A6EE50E21EC05F0480E67
:1005A8003A6EE50E16EC05F06EEC05F0000E066EE0
:1005B800000E056E4C04D8B467EC05F0D08EF28CB2
:1005C800F28ECDEC01F03AC005F03BC006F0100EFB
:1005D8003A6E000E3B6E000E3C6E080E3D6E8DECC2
:1005E80003F04C04D8A405D029EC00F05FEC04F02B
:1005F80002D070EC02F0180E3A6E000E3B6E080E38
:100608003C6E33EC04F0DDD7938C939A8A9A4E0EA5
:100618003A6EEB0EE82EFED73A2EFCD700F081ACEE
:1006280005D08A9A938A938C000E12008A8A4E0EFD
:100638003A6EEB0EE82EFED73A2EFCD700F081BCBE
:1006480005D08A9A938A938C000E12008A9A4E0ECD
:100658003A6EEB0EE82EFED73A2EFCD700F081ACAE
:1006680005D08A9A938A938C000E12008A8A4E0EBD
:100678003A6EEB0EE82EFED73A2EFCD700F081BC7E
:1006880005D08A9A938A938C000E12008A9A938ACC
:10069800938C010E12002E6E000E306E000E2F6E1F
:1006A80030BE06D0305034E1080E2F5CD8B01200AE
:1006B8002F502824D96E30502920DA6EDE502E5C57
:1006C800D8A023D0440E2F24D96E000E3020DA6E25
:1006D800DF502A6E010E2B6E2A2A02D0D8902B36B4
:1006E8002A2EFCD7D8902F34D96E3034DA6E700E9B
:1006F800D926000EDA22DECF2CF0DDCF2DF02CC06B
:10070800D9FF2DC0DAFF2B50DF122F4A302AC8D765
:1007180012003CC042F042C03EF03E463E46C25047
:100728003E18C30B3E18C26E28D0280EE82EFED7FE
:10073800C282140EE82EFED7422A42C03EF03E4640
:100748003E46C2503E18C30B3E18C26EC2B2FED718
:10075800FF0E3E6EFF0E3F6E4250406E416A3E50A5
:1007680040263F50412240503A24D96E41503B2008
:10077800DA6EC4CFDFFF000EC46E3D50425CD8B0C5
:100788001200D3D7EE0EF66E090EF76E000EF86E55
:1007980000EE60F010EE20F00900F5CFEEFFE55016
:1007A800E150FAE10C0EF66E0B0EF76E000EF86EC5
:1007B80000EE44F010EE08F00900F5CFEEFFE5502A
:1007C800E150FAE100EE89F012EE00F0EE6AE55031
:1007D800E150FCE1E250FAE100EE01F0270EEE6A8A
:1007E800E806FDE14D904D92000EF86E0001BDEF58
:1007F80002F0000E2E6E000E2D6E2EBE06D02E506C
:100808002DE1080E2D5CD8B01200440E2D24D96EAF
:10081800000E2E20DA6EDF50286E010E296E282A6F
:1008280002D0D8902936282EFCD72950FF0A2A6EE4
:10083800D8902D34D96E2E34DA6E700ED926000E6B
:10084800DA22DECF2BF0DDCF2CF02BC0D9FF2CC065
:10085800DAFF2A50DF162D4A2E2ACFD71200000EB3
:100868003F6E21D03F50010D200EF324D96E000EAB
:10087800F420DA6E3F50010DF3503A24E16EF45043
:100888003B20E26EE7503D6E3D50010DFF0EF32414
:10089800F66E7E0EF420F76E0800F5CF3EF0D89085
:1008A8003E30DF6E3F2A3C503F5CD8B01200070E46
:1008B8003F64D8D7120014D00828D8A404D008065A
:1008C800010E076E1200082A12000850D8A403D09F
:1008D800020E076E120008061200000E086E1200C3
:1008E80007503A6E3B6A3B50000AD8A412003A50AF
:1008F800000AD8B4E1D7010AD8B4E7D7030AD8A4C4
:100908001200EBD741C03AF042C03BF043C03CF084
:1009180033EC04F0000E0F6E000E0E6E71EC01F059
:100928008AEC05F0D5EC04F075EC05F0120046EC05
:1009380005F00009D8B4120099EC05F00F28D8B4D6
:10094800120081EC05F0200E286E000E296E0F5063
:100958004FEC03F00F2A12003DEC05F00009D8B463
:10096800120097EC05F0FDEC03F0010E5FEC05F0CA
:100978008EEC05F092EC05F0000E0E6E1200AC84C1
:10098800B886AC982F0EAF6E000EB06EAB8CAB9ADB
:10099800AB96AB94AB92AB8EAB889D8A9E9A9F9A8E
:1009A8001200000EB36E000EB26EB18E300EB11290
:1009B800B18CBF68BE68BD50F00B0A09BD6E9E942D
:1009C8009F8412000600D9CF31F0DACF32F020EC44
:1009D80002F09BEC04F0B0EC04F032C0DAFF31C056
:1009E800D9FF4D921100930F930F930F930F930F0D
:1009F800930F930F950F810F810F810F810F810F37
:100A0800810F810F830FC292CF0EC116C150F00B18
:100A18000909C16E010EC06E2F0E9212070E9612B2
:100A2800C28012003B6E3AC0D7FF3BC0D6FF010E12
:100A38000D6ED58EF28AF29412003B6E3AC0D7FF43
:100A48003BC0D6FFD59CD59AD596F1941200F2AA50
:100A58001200F2A41200000E0D6ED59EF29A12003A
:100A6800000E286EF2B2F2A802D0010E286E2850AD
:100A78001200000E286E9DB09EA002D0010E286EB6
:100A880028501200000E286E9DB49EA402D0010EBC
:100A9800286E285012009D809E90000ECF6E000E8A
:100AA800CE6ECD801200000EB36E000EB26E9D8425
:100AB8009E94B1801200286E28B002D0F19C01D01B
:100AC800F18CF2921200000E086E000E096E000EF4
:100AD800076E12000F0E9512070E94126F866D9610
:100AE8001200CD50CF0B2009CD6E9F801200286ECA
:100AF800000EBF6E28C0BEFF1200000EB36E000EBF
:100B0800B26E120007060504030201049380F288FE
:100B1800F18C12009D90CD90CF5012009D94B19011
:0E0B28001200F29212009E9012009E94120093
:107EFE0000FFEEE8E3E0DDDAD8D6D4D2D0CFCDCC99
:107F0E00CAC9C8C6C5C4C3C2C1C0BFBEBDBCBBBA48
:107F1E00B9B8B7B6B5B4B4B3B2B1B0B0AFAEADAD2B
:107F2E00ACABAAAAA9A8A8A7A6A6A5A4A4A3A2A2D8
:107F3E00A1A0A09F9E9E9D9D9C9B9B9A9A9998986E
:107F4E0097979695959494939392919190908F8FF5
:107F5E008E8D8D8C8C8B8B8A8A8988888787868676
:107F6E0085858484838382818180807F7F7E7E7DF0
:107F7E007D7C7C7B7B7A7979787877777676757568
:107F8E007474737272717170706F6F6E6E6D6C6CE3
:107F9E006B6B6A6A69696867676666656564636361
:107FAE0062626160605F5F5E5D5D5C5C5B5A5A59E8
:107FBE0059585757565555545353525151504F4E79
:107FCE004E4D4C4B4B4A4948484746454444434224
:107FDE0041403F3E3D3C3B3A3938373635343231FD
:107FEE00302E2D2C2A28272523211F1C1916110B64
:027FFE00000081
:020000040020DA
:08000000FFFFFFFFFFFFFFFF00
:020000040030CA
:0E000000210E191EFF0180FF0FC00FE00F4000
:00000001FF
