:020000040000FA
:0400000027EF00F0F6
:060008004F82A8ED03F099
:100018004F80D8CF4AF0E8CF4BF0E0CF4CF0D9CFA3
:100028004DF0DACF4EF029EC00F0EBEC03F04EC0C7
:10003800DAFF4DC0D9FF4CC0E0FF4BC0E8FF4AC013
:10004800D8FF4F901000AEEF02F09EAA1200ABCF7F
:1000580009F0AECF07F009A25DD0AB98AB88010ECE
:10006800086E120009B41200020E086E120009A4EC
:1000780012000750D8A41200030E086E120009A43B
:1000880003D0010E086E12000750D8A40BD0000E42
:10009800046E000E036E000E026E000E016E000E5E
:1000A800086E1200020E086E120009A409D007504B
:1000B800D8A403D0030E086E1200010E086E1200B9
:1000C8000550035C06500458D8A00AD07D0E0124C0
:1000D800D96E000E0220DA6E07C0DFFF014A022A3D
:1000E800034A042A02500AE1080E015CD8B006D07F
:1000F800000E035C020E0458D8A01200020E086E0F
:10010800480ED76EE50ED66E010E0A6ED58EF28AAF
:10011800F29412000850486E496A4950000AD8A45F
:1001280012004850000AD8B4C0D7010AD8B49AD7E8
:10013800030AD8B49CD7010AD8A41200A0D7000E8D
:100148000001766F000E756F76BF06D0765155E1C7
:10015800080E755DD8B01200350E7525D96E000EE3
:100168007621DA6EDF50706F010E716F702B02D03E
:10017800D8907137702FFCD700017151FF0A726F48
:10018800D8907535D96E7635DA6E600ED926000EA0
:10019800DA22DECF73F0DDCF74F073C0D9FF74C0FC
:1001A800DAFF7251DF16350E7525D96E000E7621ED
:1001B800DA6EDF50706F010E716F702B02D0D8901D
:1001C8007137702FFCD700017151FF0A726FD890F8
:1001D8007535D96E7635DA6E250ED926000EDA22F7
:1001E800DECF73F0DDCF74F073C0D9FF74C0DAFFCF
:1001F8007251DF16754B762BA7D712008350080B68
:100208000001726F736B723B733BF00E7317725180
:100218000F0B7313F00E72178250100B746F756BFF
:10022800D89074377537D890743775378350030B67
:10023800766F776BD89076377737D8907637773769
:10024800D890763777378250070B786F796B76516D
:1002580078137751791382CF7AF0200E7A177A5172
:100268007813000E791374517813755179137251FC
:1002780078117B6F735179117C6F8340E8423F0B93
:10028800010B7C277B05020E7C59D8B005D07BC0BA
:1002980070F07CC071F01200020E716F000E706F6A
:1002A8001200F4EC03F00009D8B4120052EC04F088
:1002B80030D0010E27EC04F04FEC04F017EC04F0FA
:1002C800020E0B6E1200E5EC02F0000E27EC04F0B3
:1002D8004FEC04F04BEC04F03CEC04F0000E0C6E18
:1002E800040E0B6E1200010E27EC04F01FEC04F054
:1002F80017EC04F0030E0B6E1200E5EC02F0000E92
:1003080027EC04F04BEC04F04FEC04F0010E0B6EFC
:1003180012000B50446E456A4550000AD8A4EDD728
:100328004450000AD8B4E9D7010AD8B4C2D7030A9E
:10033800D8B4C9D7010AD8B4C6D7070AD8B4D3D70E
:10034800DCD7000E0001746F070E746501D012002F
:100358000A04D8A430D0000E706F020E716F745169
:10036800726F736B721F731F724B732B70517227EE
:10037800715173237251055C73510658D8B02DD052
:100388007451010D7D0EF324D96E000EF420DA6E3F
:100398007451010D0D0EF324E16E000EF420E26E8F
:1003A800DE50E65CD8B007D07451010D7D0EF32401
:1003B800D96E000E06D07451010D0D0EF324D96EBE
:1003C800000EF420DA6E7451010D150EF324E16E5F
:1003D800000EF420E26EDFCFE7FF742BB5D77C0E5A
:1003E800D36E150E0001776F000E786F080E796FC7
:1003F80048EC03F0B9EC03F085EC03F0480E00017B
:10040800706FE50EE0EC03F0480E0001706FE50E2A
:10041800D4EC03F02FEC04F0000E066E000E056E0F
:10042800D08EF28CF28E02EC01F070C005F071C033
:1004380006F00D0E0001706F000E716F000E726FE6
:10044800080E736F72EC02F0A5EC01F0150E0001B6
:10045800706F000E716F080E726F1BEC03F0E3D71C
:10046800436E000E456E000E446E45BE06D04550E4
:1004780034E1080E445CD8B0120044503D24D96ED3
:1004880045503E20DA6EDE50435CD8A023D0350EAE
:100498004424D96E000E4520DA6EDF503F6E010EFF
:1004A800406E3F2A02D0D89040363F2EFCD7D890D5
:1004B8004434D96E4534DA6E250ED926000EDA2278
:1004C800DECF41F0DDCF42F041C0D9FF42C0DAFFB4
:1004D8004050DF12444A452AC8D7120072C078F04B
:1004E80078C074F0000174477447C2507419C30B84
:1004F8007419C26E2AD0280EE82EFED7C282140EB6
:10050800E82EFED70001782B78C074F07447744742
:10051800C2507419C30B7419C26EC2B2FED7FF0E53
:100528000001746FFF0E756F7851766F776B745199
:1005380076277551772376517025D96E77517121B9
:10054800DA6EC4CFDFFF000EC46E7351785DD8B089
:100558001200D1D71E0EF66E080EF76E000EF86E5A
:1005680000EE60F010EE10F00900F5CFEEFFE55058
:10057800E150FAE1900EF66E070EF76E000EF86E77
:1005880000EE25F010EE18F00900F5CFEEFFE5506B
:10059800E150FAE100EE7DF012EE00F0EE6AE5506F
:1005A800E150FCE1E250FAE100EE01F0240EEE6ABF
:1005B800E806FDE14F904F92000EF86E0001F3EF50
:1005C80001F0000E436E000E426E43BE06D043504B
:1005D8002DE1080E425CD8B01200350E4224D96EC7
:1005E800000E4320DA6EDF503D6E010E3E6E3D2A4E
:1005F80002D0D8903E363D2EFCD73E50FF0A3F6EC3
:10060800D8904234D96E4334DA6E250ED926000EBE
:10061800DA22DECF40F0DDCF41F040C0D9FF41C043
:10062800DAFF3F50DF16424A432ACFD71200000EA6
:100638000001756F21D07551010D1D0EF324D96E7F
:10064800000EF420DA6E7551010DF3507025E16E3D
:10065800F4507121E26EE750736F7351010DFF0E74
:10066800F324F66E7E0EF420F76E0800F5CF74F0D2
:10067800D8907431DF6E752B7251755DD8B0120049
:10068800070E7565D8D7120077C070F078C071F082
:1006980079C072F01BEC03F0000E0C6E000E0B6EAE
:1006A800A3EC00F047EC04F097EC03F036EC04F010
:1006B800120006EC04F00009D8B4120056EC04F05D
:1006C8000C28D8B4120042EC04F01D0E3D6E000E4A
:1006D8003E6E0C5034EC02F00C2A1200FDEC03F0D4
:1006E8000009D8B4120054EC04F0E5EC02F0010E55
:1006F80027EC04F04BEC04F04FEC04F0000E0B6E0A
:100708001200AC84B886AC982F0EAF6E000EB06E97
:10071800AB8CAB9AAB96AB94AB92AB8EAB889D8A05
:100728009E9A9F9A1200000EB36E000EB26EB18EA2
:10073800300EB112B18CBF68BE68BD50F00B0A090B
:10074800BD6E9E949F8412000600D9CF46F0DACF82
:1007580047F055EC01F05DEC03F072EC03F047C094
:10076800DAFF46C0D9FF4F921100C292CF0EC116D0
:10077800C150F00B0909C16E010EC06E2F0E921206
:10078800070E9612C2801200810F810F810F810F10
:10079800810F810F810F830F0706050403020104EF
:1007A8000001716F70C0D7FF71C0D6FF010E0A6ECD
:1007B800D58EF28AF29412000001716F70C0D7FFD3
:1007C80071C0D6FFD59CD59AD596F1941200F2AA9D
:1007D8001200F2A41200000E0A6ED59EF29A1200C0
:1007E800000E3D6EF2B2F2A802D0010E3D6E3D50F1
:1007F8001200000E3D6E9DB09EA002D0010E3D6E0F
:100808003D501200000E3D6E9DB49EA402D0010E14
:100818003D6E3D501200930F930F930F930F930F5C
:10082800930F930F950F9D809E90000ECF6E000E34
:10083800CE6ECD801200000EB36E000EB26E9D8497
:100848009E94B18012003D6E3DB002D0F19C01D063
:10085800F18CF29212000F0E9512070E94126F8609
:100868006D961200CD50CF0B2009CD6E9F801200DF
:100878003D6E000EBF6E3DC0BEFF1200000EB36E8F
:10088800000EB26E12009380F288F18C12009D90D7
:10089800CD90CF5012009D94B1901200F2921200A8
:0808A8009E9012009E941200C4
:107EFE0000FFEEE8E3E0DDDAD8D6D4D2D0CFCDCC99
:107F0E00CAC9C8C6C5C4C3C2C1C0BFBEBDBCBBBA48
:107F1E00B9B8B7B6B5B4B4B3B2B1B0B0AFAEADAD2B
:107F2E00ACABAAAAA9A8A8A7A6A6A5A4A4A3A2A2D8
:107F3E00A1A0A09F9E9E9D9D9C9B9B9A9A9998986E
:107F4E0097979695959494939392919190908F8FF5
:107F5E008E8D8D8C8C8B8B8A8A8988888787868676
:107F6E0085858484838382818180807F7F7E7E7DF0
:107F7E007D7C7C7B7B7A7979787877777676757568
:107F8E007474737272717170706F6F6E6E6D6C6CE3
:107F9E006B6B6A6A69696867676666656564636361
:107FAE0062626160605F5F5E5D5D5C5C5B5A5A59E8
:107FBE0059585757565555545353525151504F4E79
:107FCE004E4D4C4B4B4A4948484746454444434224
:107FDE0041403F3E3D3C3B3A3938373635343231FD
:107FEE00302E2D2C2A28272523211F1C1916110B64
:027FFE00000081
:020000040020DA
:08000000FFFFFFFFFFFFFFFF00
:020000040030CA
:0E000000210E191EFF0180FF0FC00FE00F4000
:00000001FF
